{
  "_format": "hh-sol-artifact-1",
  "contractName": "SomniaTradeFactory",
  "sourceName": "contracts/SomniaTradeFactory.sol",
  "abi": [
    {
      "inputs": [
        {
          "internalType": "address",
          "name": "_backendAgent",
          "type": "address"
        }
      ],
      "stateMutability": "nonpayable",
      "type": "constructor"
    },
    {
      "inputs": [
        {
          "internalType": "address",
          "name": "owner",
          "type": "address"
        }
      ],
      "name": "OwnableInvalidOwner",
      "type": "error"
    },
    {
      "inputs": [
        {
          "internalType": "address",
          "name": "account",
          "type": "address"
        }
      ],
      "name": "OwnableUnauthorizedAccount",
      "type": "error"
    },
    {
      "anonymous": false,
      "inputs": [
        {
          "indexed": true,
          "internalType": "address",
          "name": "owner",
          "type": "address"
        },
        {
          "indexed": true,
          "internalType": "address",
          "name": "account",
          "type": "address"
        },
        {
          "indexed": false,
          "internalType": "address",
          "name": "agent",
          "type": "address"
        }
      ],
      "name": "AccountCreated",
      "type": "event"
    },
    {
      "anonymous": false,
      "inputs": [
        {
          "indexed": true,
          "internalType": "address",
          "name": "newAgent",
          "type": "address"
        }
      ],
      "name": "BackendAgentUpdated",
      "type": "event"
    },
    {
      "anonymous": false,
      "inputs": [
        {
          "indexed": true,
          "internalType": "address",
          "name": "previousOwner",
          "type": "address"
        },
        {
          "indexed": true,
          "internalType": "address",
          "name": "newOwner",
          "type": "address"
        }
      ],
      "name": "OwnershipTransferred",
      "type": "event"
    },
    {
      "inputs": [
        {
          "internalType": "uint256",
          "name": "",
          "type": "uint256"
        }
      ],
      "name": "allAccounts",
      "outputs": [
        {
          "internalType": "address",
          "name": "",
          "type": "address"
        }
      ],
      "stateMutability": "view",
      "type": "function"
    },
    {
      "inputs": [],
      "name": "allAccountsLength",
      "outputs": [
        {
          "internalType": "uint256",
          "name": "",
          "type": "uint256"
        }
      ],
      "stateMutability": "view",
      "type": "function"
    },
    {
      "inputs": [],
      "name": "backendAgent",
      "outputs": [
        {
          "internalType": "address",
          "name": "",
          "type": "address"
        }
      ],
      "stateMutability": "view",
      "type": "function"
    },
    {
      "inputs": [
        {
          "internalType": "address",
          "name": "accountOwner",
          "type": "address"
        },
        {
          "internalType": "address",
          "name": "customAgent",
          "type": "address"
        }
      ],
      "name": "createAccount",
      "outputs": [
        {
          "internalType": "address",
          "name": "account",
          "type": "address"
        }
      ],
      "stateMutability": "nonpayable",
      "type": "function"
    },
    {
      "inputs": [
        {
          "internalType": "address",
          "name": "accountOwner",
          "type": "address"
        }
      ],
      "name": "getAccountsByOwner",
      "outputs": [
        {
          "internalType": "address[]",
          "name": "",
          "type": "address[]"
        }
      ],
      "stateMutability": "view",
      "type": "function"
    },
    {
      "inputs": [],
      "name": "owner",
      "outputs": [
        {
          "internalType": "address",
          "name": "",
          "type": "address"
        }
      ],
      "stateMutability": "view",
      "type": "function"
    },
    {
      "inputs": [],
      "name": "renounceOwnership",
      "outputs": [],
      "stateMutability": "nonpayable",
      "type": "function"
    },
    {
      "inputs": [
        {
          "internalType": "address",
          "name": "newAgent",
          "type": "address"
        }
      ],
      "name": "setBackendAgent",
      "outputs": [],
      "stateMutability": "nonpayable",
      "type": "function"
    },
    {
      "inputs": [
        {
          "internalType": "address",
          "name": "newOwner",
          "type": "address"
        }
      ],
      "name": "transferOwnership",
      "outputs": [],
      "stateMutability": "nonpayable",
      "type": "function"
    }
  ],
  "bytecode": "0x608060405234801561001057600080fd5b5060405161212f38038061212f83398101604081905261002f916100d4565b338061005557604051631e4fbdf760e01b81526000600482015260240160405180910390fd5b61005e81610084565b50600180546001600160a01b0319166001600160a01b0392909216919091179055610104565b600080546001600160a01b038381166001600160a01b0319831681178455604051919092169283917f8be0079c531659141344cd1fd0a4f28419497f9722a3daafe3b4186f6b6457e09190a35050565b6000602082840312156100e657600080fd5b81516001600160a01b03811681146100fd57600080fd5b9392505050565b61201c806101136000396000f3fe608060405234801561001057600080fd5b50600436106100935760003560e01c80636c3fda1d116100665780636c3fda1d14610101578063715018a6146101145780638da5cb5b1461011c57806393eb6f191461012d578063f2fde38b1461014d57600080fd5b8063133572ba1461009857806336cc6824146100c8578063405ce589146100db5780634afbebee146100ec575b600080fd5b6100ab6100a6366004610580565b610160565b6040516001600160a01b0390911681526020015b60405180910390f35b6001546100ab906001600160a01b031681565b6002546040519081526020016100bf565b6100ff6100fa3660046105b3565b610396565b005b6100ab61010f3660046105d5565b6103e8565b6100ff610412565b6000546001600160a01b03166100ab565b61014061013b3660046105b3565b610426565b6040516100bf91906105ee565b6100ff61015b3660046105b3565b61049c565b60006001600160a01b0383166101ac5760405162461bcd60e51b815260206004820152600c60248201526b24b73b30b634b227bbb732b960a11b60448201526064015b60405180910390fd5b6000306040516101bb90610557565b6001600160a01b039091168152602001604051809103906000f0801580156101e7573d6000803e3d6000fd5b50915081905060006001600160a01b03841661020e576001546001600160a01b0316610210565b835b90506001600160a01b0381161561028457604051634bec633b60e11b81526001600160a01b038281166004830152600160248301528316906397d8c67690604401600060405180830381600087803b15801561026b57600080fd5b505af115801561027f573d6000803e3d6000fd5b505050505b60405163f2fde38b60e01b81526001600160a01b03868116600483015283169063f2fde38b90602401600060405180830381600087803b1580156102c757600080fd5b505af11580156102db573d6000803e3d6000fd5b50506002805460018082019092557f405787fa12a823e0f2b7631cc41b3ba8828b3321ca811111fa75cd3aa3bb5ace0180546001600160a01b03199081166001600160a01b038981169182179093558a83166000818152600360209081526040808320805498890181558352918190209096018054909416831790935591519287168352945092507f9db37ffcb3d1eadb0306e35c0453e35a675f2e80757b09251d848185ac5cc22a910160405180910390a3505092915050565b61039e6104da565b600180546001600160a01b0319166001600160a01b0383169081179091556040517f7f18a725a79efa3fb19aed46ea47824c5c6a965506798e118afe2a93879f945e90600090a250565b600281815481106103f857600080fd5b6000918252602090912001546001600160a01b0316905081565b61041a6104da565b6104246000610507565b565b6001600160a01b03811660009081526003602090815260409182902080548351818402810184019094528084526060939283018282801561049057602002820191906000526020600020905b81546001600160a01b03168152600190910190602001808311610472575b50505050509050919050565b6104a46104da565b6001600160a01b0381166104ce57604051631e4fbdf760e01b8152600060048201526024016101a3565b6104d781610507565b50565b6000546001600160a01b031633146104245760405163118cdaa760e01b81523360048201526024016101a3565b600080546001600160a01b038381166001600160a01b0319831681178455604051919092169283917f8be0079c531659141344cd1fd0a4f28419497f9722a3daafe3b4186f6b6457e09190a35050565b6119ab8061063c83390190565b80356001600160a01b038116811461057b57600080fd5b919050565b6000806040838503121561059357600080fd5b61059c83610564565b91506105aa60208401610564565b90509250929050565b6000602082840312156105c557600080fd5b6105ce82610564565b9392505050565b6000602082840312156105e757600080fd5b5035919050565b6020808252825182820181905260009190848201906040850190845b8181101561062f5783516001600160a01b03168352928401929184019160010161060a565b5090969550505050505056fe608060405234801561001057600080fd5b50604051620019ab380380620019ab833981016040819052610031916100c4565b806001600160a01b03811661006057604051631e4fbdf760e01b81526000600482015260240160405180910390fd5b61006981610074565b5050600180556100f4565b600080546001600160a01b038381166001600160a01b0319831681178455604051919092169283917f8be0079c531659141344cd1fd0a4f28419497f9722a3daafe3b4186f6b6457e09190a35050565b6000602082840312156100d657600080fd5b81516001600160a01b03811681146100ed57600080fd5b9392505050565b6118a780620001046000396000f3fe6080604052600436106100e15760003560e01c8063a2227c811161007f578063e0c70b6611610059578063e0c70b661461026d578063e7b25e8c1461028f578063f2fde38b146102b2578063fd66091e146102d257600080fd5b8063a2227c81146101ff578063b4a122721461022d578063da3e33971461024d57600080fd5b80638c334e0d116100bb5780638c334e0d146101825780638da5cb5b146101a257806397d8c676146101ca5780639c76230c146101ea57600080fd5b8063023cdc8e146101225780635d3590d51461014b578063715018a61461016d57600080fd5b3661011d5760405134815233907f2da466a7b24304f47e87fa2e1e5a81b9831ce54fec19055ce277ca2f39ba42c49060200160405180910390a2005b600080fd5b34801561012e57600080fd5b50600e5460ff165b60405190151581526020015b60405180910390f35b34801561015757600080fd5b5061016b610166366004611259565b610302565b005b34801561017957600080fd5b5061016b61047c565b34801561018e57600080fd5b5061016b61019d3660046112b2565b610490565b3480156101ae57600080fd5b506000546040516001600160a01b039091168152602001610142565b3480156101d657600080fd5b5061016b6101e53660046112e3565b61055d565b3480156101f657600080fd5b5061016b6105c4565b34801561020b57600080fd5b5061021f61021a36600461132e565b6106d5565b604051908152602001610142565b34801561023957600080fd5b5061016b61024836600461137d565b61094c565b34801561025957600080fd5b5061016b610268366004611259565b610aa5565b34801561027957600080fd5b50610282610b9a565b604051610142919061140a565b34801561029b57600080fd5b506102a4610df3565b60405161014292919061144e565b3480156102be57600080fd5b5061016b6102cd366004611503565b610f5e565b3480156102de57600080fd5b506101366102ed366004611503565b600f6020526000908152604090205460ff1681565b61030a610f9c565b610312610fc9565b6001600160a01b0382166103605760405162461bcd60e51b815260206004820152601060248201526f125b9d985b1a59149958da5c1a595b9d60821b60448201526064015b60405180910390fd5b6001600160a01b03831661040d576000826001600160a01b03168260405160006040518083038185875af1925050503d80600081146103bb576040519150601f19603f3d011682016040523d82523d6000602084013e6103c0565b606091505b50509050806104075760405162461bcd60e51b8152602060048201526013602482015272115512081d1c985b9cd9995c8819985a5b1959606a1b6044820152606401610357565b50610421565b6104216001600160a01b0384168383610ff3565b816001600160a01b0316836001600160a01b03167f13e06184555481b6d2cb327155e8d2e1d0b1f0252a7fe6621e32cf99881488358360405161046691815260200190565b60405180910390a361047760018055565b505050565b610484610f9c565b61048e6000611045565b565b610498610f9c565b600e5460ff166104bb57604051633829b97560e11b815260040160405180910390fd5b8060046104c88282611520565b506104d890506020820182611503565b6003546001600160a01b0391909116907f94567a35429c7ba022b7d3d59f6161b541dda062117d651fb0a7cb3aca02514f602084013560408501356105236080870160608801611596565b604080519384526020840192909252151590820152608080860135606083015260a08087013591830191909152015b60405180910390a350565b610565610f9c565b6001600160a01b0382166000818152600f6020908152604091829020805460ff191685151590811790915591519182527fe9426c05342415a2258554b212d5c628e522888281554af132005b419bfb43b9910160405180910390a25050565b6000546001600160a01b031633148015906105ef5750336000908152600f602052604090205460ff16155b1561060d57604051630d9ab13f60e01b815260040160405180910390fd5b600e5460ff1661063057604051633829b97560e11b815260040160405180910390fd5b600380546000808355600480546001600160a01b0319908116909155600582905560068290556007805460ff1916905560088290556009829055600a80549091168155600b82905591929181610687600c82611155565b505050600a0180546001600160e01b0319169055600e805460ff19169055604051339082907f68bbfaa8a985659b13e3f23ffac8fc9039d6ca60199cd9327817cb0cc03eb87690600090a350565b600080546001600160a01b031633148015906107015750336000908152600f602052604090205460ff16155b1561071f57604051630d9ab13f60e01b815260040160405180910390fd5b600e5460ff16156107435760405163fb6dbb9f60e01b815260040160405180910390fd5b60006107526020840184611503565b6001600160a01b0316036107795760405163466d7fef60e01b815260040160405180910390fd5b61078660408301836115b3565b90506000036107a857604051630b8fc7cd60e21b815260040160405180910390fd5b6001600260008282546107bb9190611601565b909155505060025460039081558360046107d58282611520565b506107e590506020840184611503565b6007820180546001600160a01b0319166001600160a01b03929092169190911790556020830135600882015561081e60408401846115b3565b600983019161082e9190836116ba565b50600a81018054600160401b33026001600160e01b031990911667ffffffffffffffff421617179055600e805460ff191660011790556108716020840184611503565b6001600160a01b03166108876020860186611503565b82546001600160a01b0391909116907f82338d8e75511a6ebae5dcdb4062d804214eb604fcc0786e987ea75d4e2dfaaa602088013560408901356108d160808b0160608c01611596565b60808b013560a08c013560208c01356108ed60408e018e6115b3565b6040516108fb92919061177b565b604080519182900382209782526020820196909652931515848601526060840192909252608083015260a082015260c08101929092523360e083015251908190036101000190a45490505b92915050565b610954610f9c565b600e5460ff1661097757604051633829b97560e11b815260040160405180910390fd5b60006109866020830183611503565b6001600160a01b0316036109ad5760405163466d7fef60e01b815260040160405180910390fd5b6109ba60408201826115b3565b90506000036109dc57604051630b8fc7cd60e21b815260040160405180910390fd5b6109e96020820182611503565b600a80546001600160a01b0319166001600160a01b03929092169190911790556020810135600b55610a1e60408201826115b3565b600c91610a2c9190836116ba565b50610a3a6020820182611503565b6003546001600160a01b0391909116907fc2e29705978fd38164f466068c87a33a827c7ca44f0107a45f04616b44ff328e6020840135610a7d60408601866115b3565b604051610a8b92919061177b565b604051908190038120610552928252602082015260400190565b610aad610f9c565b60405163095ea7b360e01b81526001600160a01b0383811660048301526000602483015284169063095ea7b3906044016020604051808303816000875af1158015610afc573d6000803e3d6000fd5b505050506040513d601f19601f82011682018060405250810190610b20919061178b565b5060405163095ea7b360e01b81526001600160a01b0383811660048301526024820183905284169063095ea7b3906044016020604051808303816000875af1158015610b70573d6000803e3d6000fd5b505050506040513d601f19601f82011682018060405250810190610b94919061178b565b50505050565b6060610ba4610f9c565b610bac610fc9565b600e5460ff16610bcf57604051633829b97560e11b815260040160405180910390fd5b600a546003906001600160a01b031680610bfc5760405163466d7fef60e01b815260040160405180910390fd5b6000826007016002018054610c1090611638565b80601f0160208091040260200160405190810160405280929190818152602001828054610c3c90611638565b8015610c895780601f10610c5e57610100808354040283529160200191610c89565b820191906000526020600020905b815481529060010190602001808311610c6c57829003601f168201915b50505050509050600083600701600101549050600080846001600160a01b03168385604051610cb891906117a8565b60006040518083038185875af1925050503d8060008114610cf5576040519150601f19603f3d011682016040523d82523d6000602084013e610cfa565b606091505b509150915081610d2757610d0d81611095565b60405163f00364b160e01b8152600401610357919061140a565b846001600160a01b031686600001547f4e2304df6821710b01b90e70038549f7dac86e14424208ab75d68eeec1346bfa83604051610d65919061140a565b60405180910390a360006003818155600480546001600160a01b0319908116909155600583905560068390556007805460ff1916905560088390556009839055600a80549091168155600b83905590919081610dc2600c82611155565b505050600a0180546001600160e01b0319169055600e805460ff1916905595505050505050610df060018055565b90565b610dfb61118f565b600e546040805160a08082018352600380548352835160c0810185526004546001600160a01b0390811682526005546020838101919091526006548388015260075460ff90811615156060808601919091526008546080860152600954968501969096528187019390935286519485018752600a80549092168552600b5490850152600c805460009894979390941695948794868501949193929184019190610ea390611638565b80601f0160208091040260200160405190810160405280929190818152602001828054610ecf90611638565b8015610f1c5780601f10610ef157610100808354040283529160200191610f1c565b820191906000526020600020905b815481529060010190602001808311610eff57829003601f168201915b505050919092525050508152600a919091015467ffffffffffffffff81166020830152600160401b90046001600160a01b031660409091015294909350915050565b610f66610f9c565b6001600160a01b038116610f9057604051631e4fbdf760e01b815260006004820152602401610357565b610f9981611045565b50565b6000546001600160a01b0316331461048e5760405163118cdaa760e01b8152336004820152602401610357565b600260015403610fec57604051633ee5aeb560e01b815260040160405180910390fd5b6002600155565b604080516001600160a01b038416602482015260448082018490528251808303909101815260649091019091526020810180516001600160e01b031663a9059cbb60e01b1790526104779084906110e4565b600080546001600160a01b038381166001600160a01b0319831681178455604051919092169283917f8be0079c531659141344cd1fd0a4f28419497f9722a3daafe3b4186f6b6457e09190a35050565b60606044825110156110ca57505060408051808201909152600d81526c18d85b1b081c995d995c9d1959609a1b602082015290565b6004820191508180602001905181019061094691906117c4565b600080602060008451602086016000885af180611107576040513d6000823e3d81fd5b50506000513d9150811561111f57806001141561112c565b6001600160a01b0384163b155b15610b9457604051635274afe760e01b81526001600160a01b0385166004820152602401610357565b50805461116190611638565b6000825580601f10611171575050565b601f016020900490600052602060002090810190610f99919061122b565b6040518060a00160405280600081526020016111e56040518060c0016040528060006001600160a01b03168152602001600081526020016000815260200160001515815260200160008152602001600081525090565b8152602001611217604051806060016040528060006001600160a01b0316815260200160008152602001606081525090565b815260006020820181905260409091015290565b5b80821115611240576000815560010161122c565b5090565b6001600160a01b0381168114610f9957600080fd5b60008060006060848603121561126e57600080fd5b833561127981611244565b9250602084013561128981611244565b929592945050506040919091013590565b600060c082840312156112ac57600080fd5b50919050565b600060c082840312156112c457600080fd5b6112ce838361129a565b9392505050565b8015158114610f9957600080fd5b600080604083850312156112f657600080fd5b823561130181611244565b91506020830135611311816112d5565b809150509250929050565b6000606082840312156112ac57600080fd5b60008060e0838503121561134157600080fd5b61134b848461129a565b915060c083013567ffffffffffffffff81111561136757600080fd5b6113738582860161131c565b9150509250929050565b60006020828403121561138f57600080fd5b813567ffffffffffffffff8111156113a657600080fd5b6113b28482850161131c565b949350505050565b60005b838110156113d55781810151838201526020016113bd565b50506000910152565b600081518084526113f68160208601602086016113ba565b601f01601f19169290920160200192915050565b6020815260006112ce60208301846113de565b60018060a01b0381511682526020810151602083015260006040820151606060408501526113b260608501826113de565b60408152825160408201526000602084015160018060a01b03815116606084015260208101516080840152604081015160a08401526060810151151560c0840152608081015160e084015260a0810151610100840152506040840151610140806101208501526114c261018085018361141d565b915060608601516114de8286018267ffffffffffffffff169052565b505060808501516001600160a01b0316610160840152831515602084015290506112ce565b60006020828403121561151557600080fd5b81356112ce81611244565b813561152b81611244565b81546001600160a01b0319166001600160a01b0391909116178155602082013560018201556040820135600282015560038101606083013561156c816112d5565b815490151560ff1660ff19919091161790556080820135600482015560a090910135600590910155565b6000602082840312156115a857600080fd5b81356112ce816112d5565b6000808335601e198436030181126115ca57600080fd5b83018035915067ffffffffffffffff8211156115e557600080fd5b6020019150368190038213156115fa57600080fd5b9250929050565b8082018082111561094657634e487b7160e01b600052601160045260246000fd5b634e487b7160e01b600052604160045260246000fd5b600181811c9082168061164c57607f821691505b6020821081036112ac57634e487b7160e01b600052602260045260246000fd5b601f82111561047757600081815260208120601f850160051c810160208610156116935750805b601f850160051c820191505b818110156116b25782815560010161169f565b505050505050565b67ffffffffffffffff8311156116d2576116d2611622565b6116e6836116e08354611638565b8361166c565b6000601f84116001811461171a57600085156117025750838201355b600019600387901b1c1916600186901b178355611774565b600083815260209020601f19861690835b8281101561174b578685013582556020948501946001909201910161172b565b50868210156117685760001960f88860031b161c19848701351681555b505060018560011b0183555b5050505050565b8183823760009101908152919050565b60006020828403121561179d57600080fd5b81516112ce816112d5565b600082516117ba8184602087016113ba565b9190910192915050565b6000602082840312156117d657600080fd5b815167ffffffffffffffff808211156117ee57600080fd5b818401915084601f83011261180257600080fd5b81518181111561181457611814611622565b604051601f8201601f19908116603f0116810190838211818310171561183c5761183c611622565b8160405282815287602084870101111561185557600080fd5b6118668360208301602088016113ba565b97965050505050505056fea26469706673582212202fc1a7924d896d2d8da9577019a117ba13d07085117fc88172542bf5c53ce8a064736f6c63430008150033a26469706673582212207abad256c3cb9b64d8fb6c98b984291f78fee54bec3743010d28bcf543a87de364736f6c63430008150033",
  "linkReferences": {},
  "deployedLinkReferences": {}
}